:100000000C945D000C9485000C9485000C94850084
:100010000C9485000C9485000C9485000C9485004C
:100020000C9485000C9485000C9485000C9485003C
:100030000C9485000C94DC040C9485000C948500D1
:100040000C9492040C9485000C9460040C943A0473
:100050000C9485000C9485000C9485000C9485000C
:100060000C9485000C9485000000000024002700FB
:100070002A0000000000250028002B0004040404CE
:100080000404040402020202020203030303030342
:10009000010204081020408001020408102001021F
:1000A00004081020000000080002010000030407FB
:1000B0000000000000000000BA0511241FBECFEFB1
:1000C000D8E0DEBFCDBF11E0A0E0B1E0E8E5FEE1A1
:1000D00002C005900D92A038B107D9F722E0A0E840
:1000E000B1E001C01D92A139B207E1F710E0CDE502
:1000F000D0E004C02197FE010E94240FCC35D10727
:10010000C9F70E94E7060C942A0F0C940000AF92E6
:10011000BF92CF92DF92EF92FF920F931F93CF93F4
:10012000DF936C017B018B01040F151FEB015E0156
:10013000AE18BF08C017D10759F06991D601ED91EB
:10014000FC910190F081E02DC6010995892B79F78A
:10015000C501DF91CF911F910F91FF90EF90DF903C
:10016000CF90BF90AF900895FC01538D448D252F03
:1001700030E0842F90E0821B930B541710F0CF9641
:10018000089501970895FC01918D828D981761F073
:10019000A28DAE0FBF2FB11D5D968C91928D9F5F8A
:1001A0009F73928F90E008958FEF9FEF0895FC0169
:1001B000918D828D981731F0828DE80FF11D858D1C
:1001C00090E008958FEF9FEF0895FC01918D228DAF
:1001D000892F90E0805C9F4F821B91098F73992734
:1001E000089588EA91E00E94E50021E0892B09F456
:1001F00020E0822F089580E090E0892B29F00E9472
:10020000F10081110C9400000895FC01A48DA80F49
:10021000B92FB11DA35ABF4F2C91848D90E0019648
:100220008F739927848FA689B7892C93A089B18968
:100230008C91837080648C93938D848D981306C009
:100240000288F389E02D80818F7D80830895EF926D
:10025000FF920F931F93CF93DF93EC0181E0888F80
:100260009B8D8C8D98131AC0E889F989808185FF50
:1002700015C09FB7F894EE89FF896083E889F989F2
:1002800080818370806480839FBF81E090E0DF91F4
:10029000CF911F910F91FF90EF900895F62E0B8D47
:1002A00010E00F5F1F4F0F731127E02E8C8D8E1102
:1002B0000CC00FB607FCFACFE889F989808185FF69
:1002C000F5CFCE010E940501F1CFEB8DEC0FFD2F94
:1002D000F11DE35AFF4FF0829FB7F8940B8FEA8924
:1002E000FB8980818062CFCFCF93DF93EC01888D33
:1002F0008823B9F0AA89BB89E889F9898C9185FDA1
:1003000003C0808186FD0DC00FB607FCF7CF8C912E
:1003100085FFF2CF808185FFEDCFCE010E940501E0
:10032000E9CFDF91CF91089590E0FC01EC55FF4FAC
:100330002491FC01E057FF4F3491FC01E458FF4F3A
:10034000E491EE23C9F0222339F0233001F1A8F41F
:10035000213019F1223029F1F0E0EE0FFF1FEE58A5
:10036000FF4FA591B4918FB7F894EC91611126C01D
:1003700030953E233C938FBF08952730A9F0283055
:10038000C9F0243049F7809180008F7D03C08091AF
:1003900080008F7780938000DFCF84B58F7784BD16
:1003A000DBCF84B58F7DFBCF8091B0008F778093BA
:1003B000B000D2CF8091B0008F7DF9CF3E2BDACF45
:1003C000CF93DF9390E0FC01E057FF4F24918458D6
:1003D0009F4FFC0184918823D1F090E0880F991FF2
:1003E000FC01E859FF4FA591B491FC01EE58FF4F75
:1003F000C591D49161110EC09FB7F8948C91E22FF2
:10040000E0958E238C932881E223E8839FBFDF91C0
:10041000CF9108958FB7F894EC91E22BEC938FBFB6
:10042000F6CF1F93CF93DF93182FEB0161E00E946B
:10043000E001209739F460E0812FDF91CF911F9187
:100440000C949401CF3FD10511F461E0F5CFE12F79
:10045000F0E0EC55FF4FE491E33031F140F4E1304E
:10046000B1F0E230E1F0C038D1057CF7E4CFE730FD
:1004700029F1E83059F1E430B1F7809180008062D1
:1004800080938000D0938B00C0938A0004C084B511
:10049000806884BDC7BDDF91CF911F91089584B559
:1004A000806284BDC8BDF7CF809180008068809352
:1004B0008000D0938900C0938800EDCF8091B00078
:1004C00080688093B000C093B300E5CF8091B00006
:1004D00080628093B000C093B400DDCF8E3008F00E
:1004E0008E508770806480937C0080917A00806455
:1004F00080937A0080917A0086FDFCCF809178000D
:100500009091790008953FB7F8948091810190917E
:100510008201A0918301B091840126B5A89B05C0FA
:100520002F3F19F00196A11DB11D3FBFBA2FA92F72
:10053000982F8827BC01CD01620F711D811D911D6F
:1005400042E0660F771F881F991F4A95D1F70895DB
:100550008F929F92AF92BF92CF92DF92EF92FF92D3
:100560006B017C010E9483024B015C01C114D10428
:10057000E104F104B9F00E948302681979098A093B
:100580009B09683E73408105910580F321E0C21A02
:10059000D108E108F10888EE880E83E0981EA11CBE
:1005A000B11CE4CFFF90EF90DF90CF90BF90AF9061
:1005B0009F908F900895FC0101900020E9F73197FA
:1005C000AF01481B590BBC0188EA91E00C948700ED
:1005D0008F929F92AF92BF920F931F93CF93DF930F
:1005E000CDB7DEB7A1970FB6F894DEBF0FBECDBF73
:1005F00019A2423008F44AE08E010F5D1F4F842E8D
:10060000912CB12CA12CA50194010E94020FE62F80
:10061000B901CA01EA30F4F4E05DD801EE938D012E
:10062000232B242B252B79F790E080E0109719F0ED
:10063000CD010E94DB02A1960FB6F894DEBF0FBE7B
:10064000CDBFDF91CF911F910F91BF90AF909F9041
:100650008F900895E95CE1CFCF92DF92EF92FF9205
:10066000CF93DF936C01990FEE08FF08F7FE19C0D6
:100670006DE288EA91E00E942701EC016627772766
:10068000CB016C197D098E099F094AE00E94E8029E
:100690008C0F9D1FDF91CF91FF90EF90DF90CF9057
:1006A00008954AE0C701B601DF91CF91FF90EF9026
:1006B000DF90CF900C94E8024F925F926F927F92FE
:1006C0008F929F92AF92BF92CF92DF92EF92FF9262
:1006D0000F931F93CF936B017C01742EAC019B0190
:1006E0000E94FD0E882399F082E291E0CF911F9144
:1006F0000F91FF90EF90DF90CF90BF90AF909F90C1
:100700008F907F906F905F904F900C94DB0246012A
:100710005701E894B7F82FEF3FEF4FE75FE7C501C8
:10072000B4010E94FD0E81110DC02FEF3FEF4FE786
:100730005FE7C501B4010E942C0D18161CF486E277
:1007400091E0D4CF2FEF3FEF4FE75FE4C701B60151
:100750000E948B0E18161CF48AE291E0C7CF2FEF8F
:100760003FEF4FE75FECC701B6010E942C0D87FDFC
:10077000F3CF20E030E0A901C701B6010E942C0DA3
:1007800010E000E087FF0AC06DE288EA91E00E9475
:1007900027018C01F7FAF094F7F8F094C0E060E0DC
:1007A00070E080E09FE37C1641F020E030E040E222
:1007B00051E40E94310DCF5FF6CFA70196010E9450
:1007C000C00C2B013C010E94AA0D4B015C014AE0C8
:1007D0000E94E8027C01E00EF11ECC23C1F1C501AC
:1007E000B4010E94D90D9B01AC01C301B2010E946A
:1007F000BF0C4B015C016EE288EA91E00E94270188
:10080000E80EF91EC15018F120E030E040E251E45A
:10081000C501B4010E94900E2B013C010E94AA0D5B
:100820004B01B12CA12C4AE0C501B4010E94E802A1
:10083000E80EF91EC501B4010E94D90D9B01AC015F
:10084000C301B2010E94BF0C4B015C01DBCFC701A9
:10085000CF911F910F91FF90EF90DF90CF90BF90BD
:10086000AF909F908F907F906F905F904F90089582
:100870000C94DB021F920F920FB60F9211242F934C
:100880003F934F935F936F937F938F939F93AF9318
:10089000BF93EF93FF9388EA91E00E940501FF91D7
:1008A000EF91BF91AF919F918F917F916F915F91E8
:1008B0004F913F912F910F900FBE0F901F90189561
:1008C0001F920F920FB60F9211242F938F939F9325
:1008D000EF93FF93E091B801F091B9018081E0912D
:1008E000BE01F091BF0182FD1BC090818091C101CA
:1008F0008F5F8F732091C201821741F0E091C10197
:10090000F0E0E855FE4F958F8093C101FF91EF9184
:100910009F918F912F910F900FBE0F901F90189560
:100920008081F4CF1F920F920FB60F9211242F9354
:100930003F938F939F93AF93BF9380914502909184
:100940004602A0914702B09148023091800123E015
:10095000230F2D3758F50196A11DB11D209380015D
:100960008093450290934602A0934702B0934802B9
:100970008091810190918201A0918301B0918401C5
:100980000196A11DB11D8093810190938201A093D6
:100990008301B0938401BF91AF919F918F913F915B
:1009A0002F910F900FBE0F901F90189526E8230FE0
:1009B0000296A11DB11DD2CF1F920F920FB60F92BA
:1009C00011242F933F934F935F936F937F938F9354
:1009D0009F93AF93BF93EF93FF9387EF92EC909326
:1009E0008500809384008091A2019091A3010097DB
:1009F00009F057C08EE291E00E9438048091A60170
:100A00009091A7010E942C0387E391E00E94380493
:100A10006091510270915202809153029091540260
:100A200040E00E945C0383E491E00E9438048091DE
:100A3000A4019091A5010E942C0383E591E00E94FE
:100A4000380420E030E048EC52E460914D027091AF
:100A50004E0280914F02909150020E94900E20E031
:100A600030E04FE753E40E94310D42E00E945C0306
:100A70008AE591E00E94DB028CE591E00E94DB02B6
:100A8000FF91EF91BF91AF919F918F917F916F9166
:100A90005F914F913F912F910F900FBE0F901F903C
:100AA0001895019769F788E391E00E9438046091F6
:100AB000510270915202809153029091540242E08F
:100AC0000E945C0383E591E00E94380420E030E05E
:100AD00048EC52E460914D0270914E0280914F02B9
:100AE000909150020E94900E20E030E04FE753E4D6
:100AF0000E94310D42E00E945C038FE591E00E946C
:100B00003804609104017091050180910601909173
:100B1000070141E00E945C0387E691E00E943804EF
:100B2000609108017091090180910A0190910B0177
:100B300041E00E945C038DE691E00E9438046091E0
:100B40000C0170910D0180910E0190910F0141E017
:100B50000E945C0383E791E00E943804609149029F
:100B600070914A0280914B0290914C0242E00E94A7
:100B70005C0382CF4F925F926F927F928F929F928F
:100B8000AF92BF92CF92DF92EF92FF921092AB01A1
:100B90001092AA0188EE93E0A0E0B0E08093AC014F
:100BA0009093AD01A093AE01B093AF0184E191E0C9
:100BB0009093A9018093A80185EC90E09093B501F2
:100BC0008093B40184EC90E09093B7018093B601D8
:100BD00080EC90E09093B9018093B80181EC90E0B3
:100BE0009093BB018093BA0182EC90E09093BD0199
:100BF0008093BC0186EC90E09093BF018093BE018E
:100C00001092C1011092C2011092C3011092C4014E
:100C1000C0900C01D0900D01E0900E01F0900F01FA
:100C20008090080190900901A0900A01B0900B01FA
:100C300040900401509005016090060170900701FA
:100C40008DE492E0909374028093730281E592E0C8
:100C5000909372028093710289E492E090937602FD
:100C60008093750210928F02109287021092880270
:100C70001092890210928A0280E090E0AFE7B3E41C
:100C800080938B0290938C02A0938D02B0938E027E
:100C900084E690E0A0E0B0E0809383029093840229
:100CA000A0938502B093860210926E0210926D029C
:100CB00020E030E0A901C301B2010E942C0D87FDA4
:100CC0005AC020E030E0A901C501B4010E942C0DFA
:100CD00087FD51C020E030E0A901C701B6010E94A4
:100CE0002C0D87FD48C081E090E0909370028093C6
:100CF0006F02809390024092550250925602609289
:100D00005702709258028092590290925A02A09211
:100D10005B02B0925C02C0925D02D0925E02E092F1
:100D20005F02F09260024092610250926202609211
:100D30006302709264022DEC3CEC4CEC5DE3C50167
:100D4000B4010E94900E60936502709366028093D6
:100D50006702909368022DEC3CEC4CEC5DE3C7011C
:100D6000B6010E94310D6093690270936A0280930C
:100D70006B0290936C022FB7F8948091450290918A
:100D80004602A0914702B09148022FBF40918302D2
:100D9000509184026091850270918602841B950BAC
:100DA000A60BB70B8093770290937802A0937902F9
:100DB000B0937A02FF90EF90DF90CF90BF90AF900A
:100DC0009F908F907F906F905F904F900895CF93FA
:100DD000DF93CDB7DEB72F970FB6F894DEBF0FBE07
:100DE000CDBF789484B5826084BD84B5816084BDB4
:100DF00085B5826085BD85B5816085BD80916E00B9
:100E0000816080936E0010928100809181008260E9
:100E10008093810080918100816080938100809126
:100E200080008160809380008091B1008460809315
:100E3000B1008091B00081608093B00080917A0011
:100E4000846080937A0080917A00826080937A0037
:100E500080917A00816080937A0080917A00806826
:100E600080937A001092C10061E083E00E94E0016B
:100E700060E08091A6010E94E001609151027091B2
:100E8000520280915302909154020E94AA0D862F23
:100E900060E00E94E00160E08091A4010E94E00116
:100EA000E091B801F091B90182E08083E091B40152
:100EB000F091B5011082E091B601F091B70180E1A7
:100EC00080831092C001E091BC01F091BD0186E0E9
:100ED0008083E091BA01F091BB01808180618083C1
:100EE000E091BA01F091BB01808188608083E0913C
:100EF000BA01F091BB01808180688083E091BA01E2
:100F0000F091BB0180818F7D8083109280001092D0
:100F100081008091810085608093810087EF92EC51
:100F2000909385008093840080916F00816080930E
:100F30006F0080E090E0AAEFB3E4809349029093C1
:100F40004A02A0934B02B0934C0280918F02811110
:100F500049C0E0917302F0917402C080D180E280B8
:100F6000F380C0927B02D0927C02E0927D02F092EC
:100F70007E02E0917102F091720280819181A281E2
:100F8000B38180937F0290938002A0938102B093FB
:100F9000820280908B0290908C02A0908D02B09083
:100FA0008E02A5019401C701B6010E948B0E18168E
:100FB0004CF480927B0290927C02A0927D02B092CF
:100FC0007E0210C08090870290908802A0908902D3
:100FD000B0908A02A5019401C701B6010E942C0DB0
:100FE00087FDE7CF81E080938F0284E6282E9AE088
:100FF000392E88EA91E00E94E5001816190654F48B
:1010000088EA91E00E94C3008D36C9F51092A301D1
:101010001092A2018EE00E946E029093A70180932D
:10102000A60181E10E946E02BC01990F880B990B09
:101030000E94DB0D60935102709352028093530221
:101040009093540283E10E946E029093A5018093D5
:10105000A4018091A2019091A301009709F497C186
:10106000019709F4D7C1A0E0B0E0AB2B11F20E94C8
:10107000F100882309F4BDCF0E940000BACF813669
:1010800039F421E030E03093A3012093A201C2CFD4
:101090002091A2013091A301833641F4232B09F062
:1010A000B9CF1092A1011092A001B4CF803751F4B2
:1010B000232B09F0AFCF41E050E05093A1014093C2
:1010C000A001A8CF8F3209F0A5CF2115310509F075
:1010D0007CC088EA91E00E94C3008F3FD1F38F3239
:1010E000C1F3853609F413C320919E0130919F010D
:1010F000F901EB57FE4F80832F5F3F4F30939F01E5
:1011000020939E01E6CF80E090E0AEE7B3E48093C9
:101110004D0290934E02A0934F02B09350028091E3
:10112000A0019091A101019709F074CF20918F0146
:10113000022E000C330B20533109229EC001239E46
:10114000900D112420919001022E000C330B20539E
:101150003109329EA001339E500D1124840F951F3A
:1011600020919101022E000C330B20533109820F84
:10117000931F909301018093000120919701022E0B
:10118000000C330B20533109229EC001239E900D89
:10119000112420919801022E000C330B20533109A9
:1011A000329EA001339E500D1124840F951F209173
:1011B0009901022E000C330B20533109820F931F2B
:1011C000909303018093020125CF2130310509F06E
:1011D00021CF88EA91E00E94C3008F3FD1F38F3284
:1011E000C1F3853609F4D6C220919E0130919F014A
:1011F000F901EB57FE4F80832F5F3F4F30939F01E4
:1012000020939E01E6CF80E090ECAFE7B4E48093BA
:10121000490290934A02A0934B02B0934C0220E003
:1012200030E0A90169817A818B819C810E942C0D1B
:1012300087FDF0CE20E030E0A901C701B6010E9491
:101240002C0D87FDE7CE20E030E0A901C501B401F7
:101250000E942C0D87FDDECE21E080916F029091DF
:101260007002019709F020E02093900289819A8111
:10127000AB81BC818093550290935602A093570294
:10128000B0935802C0925902D0925A02E0925B0287
:10129000F0925C0280925D0290925E02A0925F02E8
:1012A000B092600260918302709184028091850205
:1012B000909186020E94D90D20E030E04AE754E484
:1012C0000E94310D2B013C0129813A814B815C81C7
:1012D0002093610230936202409363025093640250
:1012E000AC019B01C701B6010E94900E6B017C010D
:1012F000C0926502D0926602E0926702F0926802A4
:10130000A3019201C501B4010E94310D4B015C01A2
:101310008092690290926A02A0926B02B0926C0273
:1013200080916D0290916E02019709F073CE298130
:101330003A814B815C8160E070E0CB010E94BF0C80
:1013400060936102709362028093630290936402DF
:10135000A701960160E070E0CB010E94BF0C609392
:101360006502709366028093670290936802A501FC
:10137000940160E070E0CB010E94BF0C60936902B1
:1013800070936A0280936B0290936C0243CE8091BB
:10139000A0019091A101009709F490C1019709F073
:1013A00062CE70E060E083E00E9411028091020151
:1013B0009091030148EE53E0849FB001859F700D2A
:1013C000949F700D1124072E000C880B990B0E941E
:1013D000A80260914D0270914E0280914F0290914F
:1013E00050020E94A30D83E00E941102809100012F
:1013F00090910101A8EEB3E08A9FB0018B9F700D20
:101400009A9F700D1124072E000C880B990B0E94D7
:10141000A80229CE80918F02882309F433C18FB7A7
:10142000F894209145023091460240914702509134
:1014300048022A873B874C875D878FBF8091770260
:1014400090917802A0917902B0917A024A855B85E9
:101450006C857D85481B590B6A0B7B0B8091830241
:1014600090918402A0918502B09186024817590795
:101470006A077B0708F406C1E0917102F0917202DD
:1014800080819181A281B38189839A83AB83BC835C
:10149000E0917502F09176029C01AD01608171814D
:1014A000828193810E94BF0C4B015C0120917F02DD
:1014B00030918002409181025091820269817A814B
:1014C0008B819C810E94BF0C6B017C012091650285
:1014D000309166024091670250916802C501B401E3
:1014E0000E94900E20917B0230917C0240917D02FF
:1014F00050917E020E94C00C2B013C0140927B0265
:1015000050927C0260927D0270927E0290919002D5
:101510009D8391111AC02091610230916202409125
:10152000630250916402C701B6010E94900E9B01B4
:10153000AC01C301B2010E94BF0C60937B027093A7
:101540007C0280937D0290937E0240907B025090BB
:101550007C0260907D0270907E0210918B0200915F
:101560008C02A0918D02AF87B0918E02BE87212F91
:10157000302FAD01C301B2010E948B0E18160CF082
:10158000ABC0812F902FAF85BE8580937B02909357
:101590007C02A0937D02B0937E029D81992309F481
:1015A000B2C0209161023091620240916302509179
:1015B0006402C501B4010E94900E4B015C012091B0
:1015C000690230916A0240916B0250916C02C7012E
:1015D000B6010E94900E9B01AC0160917B0270915C
:1015E0007C0280917D0290917E020E94BF0CA50139
:1015F00094010E94C00C6B017C019B01AC01612F26
:10160000702F8F859E850E942C0D87FD17C010912D
:10161000870200918802A0918902AF87B0918A0267
:10162000BE87212F302FAD01B601C7010E942C0DBE
:1016300087FD04C01C2D0D2DEF86FE86E091730200
:10164000F0917402812F902FAF85BE8580839183A6
:10165000A283B38329813A814B815C8120937F02ED
:101660003093800240938102509382028A859B8549
:10167000AC85BD858093770290937802A093790220
:10168000B0937A0220E030E04EE753E460914D02DF
:1016900070914E0280914F02909150020E948B0EE9
:1016A000181664F480E090E0AEE7B3E480934D0256
:1016B00090934E02A0934F02B093500260914D025E
:1016C00070914E0280914F02909150020E94A30DA2
:1016D00083E00E941102C7CC2091870230918802DA
:1016E0004091890250918A022E833F83488759870F
:1016F000C301B2010E942C0D87FF4FCF8E819F81C5
:10170000A885B98542CF812C912C540158CF1092D5
:101710009F0110929E0180918801082E000C990B68
:10172000C097289EB001299E700D112480918901D7
:10173000082E000C990BC097389E9001399E300DF1
:101740001124620F731F80918A01082E000C990BDF
:10175000C097680F791F072E000C880B990B0E9409
:10176000DB0D23E333E343E250E40E94900E6B0170
:101770007C0120E030E04EE753E40E948B0E87FFAF
:10178000C2CCC0924D02D0924E02E0924F02F09233
:101790005002C5CC10929F0110929E01809186014B
:1017A000082E000C990BC097289EB001299E700D41
:1017B000112480918701082E000C990BC097389E48
:1017C0009001399E300D1124620F731F80918801A2
:1017D000082E000C990BC097680F791F072E000C7C
:1017E000880B990B0E94DB0D20E030E040E251E4D1
:1017F0000E94310D69837A838B839C8360930401FB
:1018000070930501809306019093070180918B01ED
:10181000082E000C990BC097289EB001299E700DD0
:10182000112480918C01082E000C990BC097389ED2
:101830009001399E300D1124620F731F80918D012C
:10184000082E000C990BC097680F791F072E000C0B
:10185000880B990B0E94DB0D20E030E040E251E460
:101860000E94310D6B017C01C0920801D0920901E8
:10187000E0920A01F0920B0180919001082E000C79
:10188000990BC097289E9001299E300D11248091BC
:101890009101082E000C990BC097389EB001399E1B
:1018A000700D1124620F731F20919201022E000C03
:1018B000330B20533109620F731F072E000C880B66
:1018C000990B0E94DB0D20E030E040E251E40E94E1
:1018D000310D4B015C0180920C0190920D01A092A0
:1018E0000E01B0920F0180919501082E000C990B0A
:1018F000C09728EE33E0829FB001839F700D929FC6
:10190000700D112480919601082E000C990BC09740
:10191000289E9001299E300D1124260F371F80919B
:101920009701082E000C990BC097389EB001399E84
:10193000700D1124620F731F20919801022E000C6C
:10194000330B20533109620F731F072E000C880BD5
:10195000990B0E94DB0D2B013C0120E030EC4FE79E
:1019600054E40E948B0E18160CF44DCC40924902A0
:1019700050924A0260924B0270924C0250CC5058E6
:10198000BB27AA270E94D70C0C94510E0E94430E2D
:1019900038F00E944A0E20F039F49F3F19F426F4E3
:1019A0000C94400E0EF4E095E7FB0C943A0EE92FF0
:1019B0000E94620E58F3BA176207730784079507EF
:1019C00020F079F4A6F50C94840E0EF4E0950B2E1D
:1019D000BA2FA02D0B01B90190010C01CA01A00181
:1019E0001124FF27591B99F0593F50F4503E68F1DC
:1019F0001A16F040A22F232F342F4427585FF3CF1D
:101A0000469537952795A795F0405395C9F77EF4ED
:101A10001F16BA0B620B730B840BBAF09150A1F036
:101A2000FF0FBB1F661F771F881FC2F70EC0BA0FBC
:101A3000621F731F841F48F4879577956795B79544
:101A4000F7959E3F08F0B0CF9395880F08F099273F
:101A5000EE0F9795879508950E94160E08F481E081
:101A600008950E94450D0C94510E0E944A0E58F0A4
:101A70000E94430E40F029F45F3F29F00C943A0E87
:101A800051110C94850E0C94400E0E94620E68F366
:101A90009923B1F3552391F3951B550BBB27AA2727
:101AA00062177307840738F09F5F5F4F220F331F61
:101AB000441FAA1FA9F335D00E2E3AF0E0E832D029
:101AC00091505040E695001CCAF72BD0FE2F29D02C
:101AD000660F771F881FBB1F261737074807AB07FE
:101AE000B0E809F0BB0B802DBF01FF2793585F4F73
:101AF0003AF09E3F510578F00C943A0E0C94850E06
:101B00005F3FE4F3983ED4F3869577956795B79554
:101B1000F7959F5FC9F7880F911D9695879597F95F
:101B20000895E1E0660F771F881FBB1F62177307D8
:101B30008407BA0720F0621B730B840BBA0BEE1FED
:101B400088F7E09508950E94AA0D6894B1110C944D
:101B5000850E08950E946A0E88F09F5798F0B92F5D
:101B60009927B751B0F0E1F0660F771F881F991FD2
:101B70001AF0BA95C9F714C0B13091F00E94840EE2
:101B8000B1E008950C94840E672F782F8827B85FF2
:101B900039F0B93FCCF3869577956795B395D9F72A
:101BA0003EF490958095709561957F4F8F4F9F4F34
:101BB0000895E89409C097FB3EF490958095709540
:101BC00061957F4F8F4F9F4F9923A9F0F92F96E989
:101BD000BB279395F695879577956795B795F111FE
:101BE000F8CFFAF4BB0F11F460FF1BC06F5F7F4F9B
:101BF0008F4F9F4F16C0882311F096E911C07723AD
:101C000021F09EE8872F762F05C0662371F096E8B5
:101C1000862F70E060E02AF09A95660F771F881F84
:101C2000DAF7880F9695879597F90895990F000828
:101C3000550FAA0BE0E8FEEF16161706E807F9079E
:101C4000C0F012161306E407F50798F0621B730B39
:101C5000840B950B39F40A2661F0232B242B252BBA
:101C600021F408950A2609F4A140A6958FEF811D5D
:101C7000811D089597F99F6780E870E060E00895FE
:101C80009FEF80EC089500240A9416161706180694
:101C90000906089500240A94121613061406050670
:101CA0000895092E0394000C11F4882352F0BB0F01
:101CB00040F4BF2B11F460FF04C06F5F7F4F8F4F64
:101CC0009F4F089557FD9058440F551F59F05F3F9F
:101CD00071F04795880F97FB991F61F09F3F79F04E
:101CE00087950895121613061406551FF2CF4695D0
:101CF000F1DF08C0161617061806991FF1CF869552
:101D00007105610508940895E894BB276627772735
:101D1000CB0197F908950E94160E08F48FEF0895ED
:101D20000E94A30E0C94510E0E94430E38F00E94A4
:101D30004A0E20F0952311F00C943A0E0C94400EAC
:101D400011240C94850E0E94620E70F3959FC1F3CE
:101D5000950F50E0551F629FF001729FBB27F00D59
:101D6000B11D639FAA27F00DB11DAA1F649F6627AE
:101D7000B00DA11D661F829F2227B00DA11D621FFD
:101D8000739FB00DA11D621F839FA00D611D221FB7
:101D9000749F3327A00D611D231F849F600D211D9B
:101DA000822F762F6A2F11249F5750409AF0F1F01E
:101DB00088234AF0EE0FFF1FBB1F661F771F881F87
:101DC00091505040A9F79E3F510580F00C943A0E77
:101DD0000C94850E5F3FE4F3983ED4F38695779597
:101DE0006795B795F795E7959F5FC1F7FE2B880F2D
:101DF000911D9695879597F908950E94160E880B68
:101E0000990B0895A1E21A2EAA1BBB1BFD010DC060
:101E1000AA1FBB1FEE1FFF1FA217B307E407F5079A
:101E200020F0A21BB30BE40BF50B661F771F881F76
:101E3000991F1A9469F760957095809590959B010C
:101E4000AC01BD01CF010895EE0FFF1F0590F49185
:081E5000E02D0994F894FFCF86
:101E5800010001000000803FCDCC4C3E0000803FD7
:101E68000000000027018700B4007401E500C300EA
:101E7800D7006E616E00696E66006F766600546505
:101E88006E73616F3A200009436F7272656E7465F4
:101E98003A2000090954656D706572617475726144
:101EA8003A20000950574D3A200025000D0A002518
:101EB80020094B703A2000094B693A2000094B640D
:101EC8003A200009536574706F696E743A200000F7
:00000001FF
