:100000000C945D000C9485000C9485000C94850084
:100010000C9485000C9485000C9485000C9485004C
:100020000C9485000C9485000C9485000C9485003C
:100030000C9485000C94DC040C9485000C948500D1
:100040000C9492040C9485000C9460040C943A0473
:100050000C9485000C9485000C9485000C9485000C
:100060000C9485000C9485000000000024002700FB
:100070002A0000000000250028002B0004040404CE
:100080000404040402020202020203030303030342
:10009000010204081020408001020408102001021F
:1000A00004081020000000080002010000030407FB
:1000B0000000000000000000A50511241FBECFEFC6
:1000C000D8E0DEBFCDBF11E0A0E0B1E0EEE2FEE19E
:1000D00002C005900D92AE34B107D9F722E0AEE42C
:1000E000B1E001C01D92AF35B207E1F710E0CDE5F8
:1000F000D0E004C02197FE010E940F0FCC35D1073C
:10010000C9F70E94D2060C94150F0C940000AF9210
:10011000BF92CF92DF92EF92FF920F931F93CF93F4
:10012000DF936C017B018B01040F151FEB015E0156
:10013000AE18BF08C017D10759F06991D601ED91EB
:10014000FC910190F081E02DC6010995892B79F78A
:10015000C501DF91CF911F910F91FF90EF90DF903C
:10016000CF90BF90AF900895FC01538D448D252F03
:1001700030E0842F90E0821B930B541710F0CF9641
:10018000089501970895FC01918D828D981761F073
:10019000A28DAE0FBF2FB11D5D968C91928D9F5F8A
:1001A0009F73928F90E008958FEF9FEF0895FC0169
:1001B000918D828D981731F0828DE80FF11D858D1C
:1001C00090E008958FEF9FEF0895FC01918D228DAF
:1001D000892F90E0805C9F4F821B91098F73992734
:1001E000089586E791E00E94E50021E0892B09F45B
:1001F00020E0822F089580E090E0892B29F00E9472
:10020000F10081110C9400000895FC01A48DA80F49
:10021000B92FB11DA35ABF4F2C91848D90E0019648
:100220008F739927848FA689B7892C93A089B18968
:100230008C91837080648C93938D848D981306C009
:100240000288F389E02D80818F7D80830895EF926D
:10025000FF920F931F93CF93DF93EC0181E0888F80
:100260009B8D8C8D98131AC0E889F989808185FF50
:1002700015C09FB7F894EE89FF896083E889F989F2
:1002800080818370806480839FBF81E090E0DF91F4
:10029000CF911F910F91FF90EF900895F62E0B8D47
:1002A00010E00F5F1F4F0F731127E02E8C8D8E1102
:1002B0000CC00FB607FCFACFE889F989808185FF69
:1002C000F5CFCE010E940501F1CFEB8DEC0FFD2F94
:1002D000F11DE35AFF4FF0829FB7F8940B8FEA8924
:1002E000FB8980818062CFCFCF93DF93EC01888D33
:1002F0008823B9F0AA89BB89E889F9898C9185FDA1
:1003000003C0808186FD0DC00FB607FCF7CF8C912E
:1003100085FFF2CF808185FFEDCFCE010E940501E0
:10032000E9CFDF91CF91089590E0FC01EC55FF4FAC
:100330002491FC01E057FF4F3491FC01E458FF4F3A
:10034000E491EE23C9F0222339F0233001F1A8F41F
:10035000213019F1223029F1F0E0EE0FFF1FEE58A5
:10036000FF4FA591B4918FB7F894EC91611126C01D
:1003700030953E233C938FBF08952730A9F0283055
:10038000C9F0243049F7809180008F7D03C08091AF
:1003900080008F7780938000DFCF84B58F7784BD16
:1003A000DBCF84B58F7DFBCF8091B0008F778093BA
:1003B000B000D2CF8091B0008F7DF9CF3E2BDACF45
:1003C000CF93DF9390E0FC01E057FF4F24918458D6
:1003D0009F4FFC0184918823D1F090E0880F991FF2
:1003E000FC01E859FF4FA591B491FC01EE58FF4F75
:1003F000C591D49161110EC09FB7F8948C91E22FF2
:10040000E0958E238C932881E223E8839FBFDF91C0
:10041000CF9108958FB7F894EC91E22BEC938FBFB6
:10042000F6CF1F93CF93DF93182FEB0161E00E946B
:10043000E001209739F460E0812FDF91CF911F9187
:100440000C949401CF3FD10511F461E0F5CFE12F79
:10045000F0E0EC55FF4FE491E33031F140F4E1304E
:10046000B1F0E230E1F0C038D1057CF7E4CFE730FD
:1004700029F1E83059F1E430B1F7809180008062D1
:1004800080938000D0938B00C0938A0004C084B511
:10049000806884BDC7BDDF91CF911F91089584B559
:1004A000806284BDC8BDF7CF809180008068809352
:1004B0008000D0938900C0938800EDCF8091B00078
:1004C00080688093B000C093B300E5CF8091B00006
:1004D00080628093B000C093B400DDCF8E3008F00E
:1004E0008E508770806480937C0080917A00806455
:1004F00080937A0080917A0086FDFCCF809178000D
:100500009091790008953FB7F89480914F019091B0
:100510005001A0915101B091520126B5A89B05C090
:100520002F3F19F00196A11DB11D3FBFBA2FA92F72
:10053000982F8827BC01CD01620F711D811D911D6F
:1005400042E0660F771F881F991F4A95D1F70895DB
:100550008F929F92AF92BF92CF92DF92EF92FF92D3
:100560006B017C010E9483024B015C01C114D10428
:10057000E104F104B9F00E948302681979098A093B
:100580009B09683E73408105910580F321E0C21A02
:10059000D108E108F10888EE880E83E0981EA11CBE
:1005A000B11CE4CFFF90EF90DF90CF90BF90AF9061
:1005B0009F908F900895FC0101900020E9F73197FA
:1005C000AF01481B590BBC0186E791E00C948700F2
:1005D0008F929F92AF92BF920F931F93CF93DF930F
:1005E000CDB7DEB7A1970FB6F894DEBF0FBECDBF73
:1005F00019A2423008F44AE08E010F5D1F4F842E8D
:10060000912CB12CA12CA50194010E94ED0EE62F96
:10061000B901CA01EA30F4F4E05DD801EE938D012E
:10062000232B242B252B79F790E080E0109719F0ED
:10063000CD010E94DB02A1960FB6F894DEBF0FBE7B
:10064000CDBFDF91CF911F910F91BF90AF909F9041
:100650008F900895E95CE1CFCF92DF92EF92FF9205
:10066000CF93DF936C01990FEE08FF08F7FE19C0D6
:100670006DE286E791E00E942701EC01662777276B
:10068000CB016C197D098E099F094AE00E94E8029E
:100690008C0F9D1FDF91CF91FF90EF90DF90CF9057
:1006A00008954AE0C701B601DF91CF91FF90EF9026
:1006B000DF90CF900C94E8024F925F926F927F92FE
:1006C0008F929F92AF92BF92CF92DF92EF92FF9262
:1006D0000F931F93CF936B017C01742EAC019B0190
:1006E0000E94E80E882399F082E291E0CF911F9159
:1006F0000F91FF90EF90DF90CF90BF90AF909F90C1
:100700008F907F906F905F904F900C94DB0246012A
:100710005701E894B7F82FEF3FEF4FE75FE7C501C8
:10072000B4010E94E80E81110DC02FEF3FEF4FE79B
:100730005FE7C501B4010E94170D18161CF486E28C
:1007400091E0D4CF2FEF3FEF4FE75FE4C701B60151
:100750000E94760E18161CF48AE291E0C7CF2FEFA4
:100760003FEF4FE75FECC701B6010E94170D87FD11
:10077000F3CF20E030E0A901C701B6010E94170DB8
:1007800010E000E087FF0AC06DE286E791E00E947A
:1007900027018C01F7FAF094F7F8F094C0E060E0DC
:1007A00070E080E09FE37C1641F020E030E040E222
:1007B00051E40E941C0DCF5FF6CFA70196010E9465
:1007C000AB0C2B013C010E94950D4B015C014AE0F2
:1007D0000E94E8027C01E00EF11ECC23C1F1C501AC
:1007E000B4010E94C40D9B01AC01C301B2010E947F
:1007F000AA0C4B015C016EE286E791E00E942701A2
:10080000E80EF91EC15018F120E030E040E251E45A
:10081000C501B4010E947B0E2B013C010E94950D85
:100820004B01B12CA12C4AE0C501B4010E94E802A1
:10083000E80EF91EC501B4010E94C40D9B01AC0174
:10084000C301B2010E94AA0C4B015C01DBCFC701BE
:10085000CF911F910F91FF90EF90DF90CF90BF90BD
:10086000AF909F908F907F906F905F904F90089582
:100870000C94DB021F920F920FB60F9211242F934C
:100880003F934F935F936F937F938F939F93AF9318
:10089000BF93EF93FF9386E791E00E940501FF91DC
:1008A000EF91BF91AF919F918F917F916F915F91E8
:1008B0004F913F912F910F900FBE0F901F90189561
:1008C0001F920F920FB60F9211242F938F939F9325
:1008D000EF93FF93E0918601F09187018081E09191
:1008E0008C01F0918D0182FD1BC0908180918F0160
:1008F0008F5F8F7320919001821741F0E0918F01FB
:10090000F0E0EA58FE4F958F80938F01FF91EF91B1
:100910009F918F912F910F900FBE0F901F90189560
:100920008081F4CF1F920F920FB60F9211242F9354
:100930003F938F939F93AF93BF93809113029091B6
:100940001402A0911502B091160230914E0123E0DD
:10095000230F2D3758F50196A11DB11D20934E018F
:100960008093130290931402A0931502B093160281
:1009700080914F0190915001A0915101B09152018D
:100980000196A11DB11D80934F0190935001A0933A
:100990005101B0935201BF91AF919F918F913F91BF
:1009A0002F910F900FBE0F901F90189526E8230FE0
:1009B0000296A11DB11DD2CF1F920F920FB60F92BA
:1009C00011242F933F934F935F936F937F938F9354
:1009D0009F93AF93BF93EF93FF9387EF92EC909326
:1009E000850080938400809170019091710100973F
:1009F00009F04BC08EE291E00E94380480917401AE
:100A0000909175010E942C0382E391E00E943804CA
:100A100060911F0270912002809121029091220228
:100A200040E00E945C0385E391E00E9438048091DD
:100A30007201909173010E942C0388E391E00E945F
:100A4000380460911B0270911C0280911D029091EC
:100A50001E0240E00E945C038DE391E00E94DB02F5
:100A60008FE391E00E94DB02FF91EF91BF91AF9184
:100A70009F918F917F916F915F914F913F912F91B6
:100A80000F900FBE0F901F901895019769F78EE297
:100A900091E00E94380480917401909175010E9448
:100AA0002C0382E391E00E94380460911F02709150
:100AB0002002809121029091220240E00E945C037A
:100AC00085E391E00E943804809172019091730156
:100AD0000E942C0388E391E00E94380460911B027D
:100AE00070911C0280911D0290911E0240E00E94B4
:100AF0005C0382E491E00E943804609104017091EB
:100B00000501809106019091070141E00E945C037C
:100B100086E491E00E943804609108017091090117
:100B200080910A0190910B0141E00E945C038AE4EC
:100B300091E00E94380460910C0170910D01809148
:100B40000E0190910F0141E085CF4F925F926F921D
:100B50007F928F929F92AF92BF92CF92DF92EF924D
:100B6000FF92109279011092780188EE93E0A0E054
:100B7000B0E080937A0190937B01A0937C01B093C5
:100B80007D0184E191E0909377018093760185EC7B
:100B900090E0909383018093820184EC90E09093A5
:100BA00085018093840180EC90E09093870180938D
:100BB000860181EC90E0909389018093880182EC1A
:100BC00090E090938B0180938A0186EC90E0909363
:100BD0008D0180938C0110928F01109290011092E0
:100BE000910110929201C0900C01D0900D01E09003
:100BF0000E01F0900F018090080190900901A090E3
:100C00000A01B0900B0140900401509005016090E2
:100C10000601709007018BE192E09093420280936D
:100C200041028FE192E09093400280933F0287E17E
:100C300092E0909344028093430210925D021092DE
:100C4000550210925602109257021092580280E0FC
:100C500090E0AFE7B3E48093590290935A02A093D7
:100C60005B02B0935C0284E690E0A0E0B0E0809389
:100C7000510290935202A0935302B09354021092E7
:100C80003C0210923B0220E030E0A901C301B20116
:100C90000E94170D87FD5AC020E030E0A901C50170
:100CA000B4010E94170D87FD51C020E030E0A9017A
:100CB000C701B6010E94170D87FD48C081E090E092
:100CC00090933E0280933D0280935E024092230205
:100CD000509224026092250270922602809227028E
:100CE00090922802A0922902B0922A02C0922B026E
:100CF000D0922C02E0922D02F0922E0240922F020E
:100D00005092300260923102709232022DEC3CEC33
:100D10004CEC5DE3C501B4010E947B0E609333028D
:100D20007093340280933502909336022DEC3CECA4
:100D30004CEC5DE3C701B6010E941C0D60933702C5
:100D4000709338028093390290933A022FB7F89447
:100D50008091130290911402A0911502B091160295
:100D60002FBF4091510250915202609153027091F5
:100D70005402841B950BA60BB70B809345029093EE
:100D80004602A0934702B0934802FF90EF90DF9095
:100D9000CF90BF90AF909F908F907F906F905F901B
:100DA0004F900895CF93DF93CDB7DEB72F970FB64F
:100DB000F894DEBF0FBECDBF789484B5826084BD49
:100DC00084B5816084BD85B5826085BD85B581604F
:100DD00085BD80916E00816080936E0010928100CD
:100DE0008091810082608093810080918100816088
:100DF0008093810080918000816080938000809149
:100E0000B10084608093B1008091B00081608093D4
:100E1000B00080917A00846080937A0080917A009B
:100E2000826080937A0080917A00816080937A005A
:100E300080917A00806880937A001092C10061E00E
:100E400083E00E94E00160E0809174010E94E00173
:100E500060911F02709120028091210290912202E4
:100E60000E94950D862F60E00E94E00160E0809175
:100E700072010E94E001E0918601F091870182E019
:100E80008083E0918201F09183011082E0918401DE
:100E9000F091850180E1808310928E01E0918A01BA
:100EA000F0918B0186E08083E0918801F0918901C7
:100EB000808180618083E0918801F0918901808147
:100EC00088608083E0918801F09189018081806849
:100ED0008083E0918801F091890180818F7D8083FA
:100EE0001092800010928100809181008560809333
:100EF000810087EF92EC909385008093840080912D
:100F00006F00816080936F0080E090E0AAEFB3E40F
:100F10008093170290931802A0931902B0931A02BB
:100F200080915D02811149C0E0914102F09142023D
:100F3000C080D180E280F380C0924902D0924A0200
:100F4000E0924B02F0924C02E0913F02F09140029D
:100F500080819181A281B38180934D0290934E0252
:100F6000A0934F02B09350028090590290905A0281
:100F7000A0905B02B0905C02A5019401C701B6018C
:100F80000E94760E18164CF48092490290924A0202
:100F9000A0924B02B0924C0210C0809055029090EB
:100FA0005602A0905702B0905802A5019401C701C3
:100FB000B6010E94170D87FDE7CF81E080935D02A7
:100FC00084E6282E9AE0392E86E791E00E94E5001B
:100FD0001816190654F486E791E00E94C3008D3676
:100FE000C9F510927101109270018EE00E946E029C
:100FF000909375018093740181E10E946E02BC019F
:10100000990F880B990B0E94C60D60931F02709375
:101010002002809321029093220283E10E946E02BB
:10102000909373018093720180917001909171018E
:10103000009709F497C1019709F4D7C1A0E0B0E087
:10104000AB2B11F20E94F100882309F4BDCF0E945E
:101050000000BACF813639F421E030E030937101DD
:1010600020937001C2CF20917001309171018336BD
:1010700041F4232B09F0B9CF10926F0110926E0149
:10108000B4CF803751F4232B09F0AFCF41E050E0CB
:1010900050936F0140936E01A8CF8F3209F0A5CF16
:1010A0002115310509F07CC086E791E00E94C3005C
:1010B0008F3FD1F38F32C1F3853609F413C32091EA
:1010C0006C0130916D01F901ED5AFE4F80832F5F65
:1010D0003F4F30936D0120936C01E6CF80E090E0AC
:1010E000AEE7B3E480931B0290931C02A0931D0211
:1010F000B0931E0280916E0190916F01019709F0EB
:1011000074CF20915D01022E000C330B2053310966
:10111000229EC001239E900D112420915E01022E7B
:10112000000C330B20533109329EA001339E500D29
:101130001124840F951F20915F01022E000C330BA8
:1011400020533109820F931F909301018093000176
:1011500020916501022E000C330B20533109229E91
:10116000C001239E900D112420916601022E000CD7
:10117000330B20533109329EA001339E500D1124B0
:10118000840F951F20916701022E000C330B205312
:101190003109820F931F909303018093020125CFA1
:1011A0002130310509F021CF86E791E00E94C3008C
:1011B0008F3FD1F38F32C1F3853609F4D6C2209127
:1011C0006C0130916D01F901ED5AFE4F80832F5F64
:1011D0003F4F30936D0120936C01E6CF80E090EC9F
:1011E000AFE7B4E48093170290931802A09319021A
:1011F000B0931A0220E030E0A90169817A818B81E5
:101200009C810E94170D87FDF0CE20E030E0A901FF
:10121000C701B6010E94170D87FDE7CE20E030E040
:10122000A901C501B4010E94170D87FDDECE21E0A2
:1012300080913D0290913E02019709F020E02093B9
:101240005E0289819A81AB81BC8180932302909355
:101250002402A0932502B0932602C0922702D092C6
:101260002802E0922902F0922A0280922B029092A8
:101270002C02A0922D02B0922E0260915102709128
:10128000520280915302909154020E94C40D20E0BA
:1012900030E04AE754E40E941C0D2B013C012981F7
:1012A0003A814B815C8120932F023093300240932E
:1012B000310250933202AC019B01C701B6010E947A
:1012C0007B0E6B017C01C0923302D0923402E0921B
:1012D0003502F0923602A3019201C501B4010E94C9
:1012E0001C0D4B015C018092370290923802A09253
:1012F0003902B0923A0280913B0290913C020197F0
:1013000009F073CE29813A814B815C8160E070E005
:10131000CB010E94AA0C60932F027093300280933D
:10132000310290933202A701960160E070E0CB0198
:101330000E94AA0C609333027093340280933502AA
:1013400090933602A501940160E070E0CB010E9409
:10135000AA0C6093370270933802809339029093FD
:101360003A0243CE80916E0190916F01009709F48B
:1013700090C1019709F062CE70E060E083E00E94C6
:101380001102809102019091030148EE53E0849F85
:10139000B001859F700D949F700D1124072E000CD5
:1013A000880B990B0E94A80260911B0270911C028D
:1013B00080911D0290911E020E948E0D83E00E947A
:1013C00011028091000190910101A8EEB3E08A9F83
:1013D000B0018B9F700D9A9F700D1124072E000C89
:1013E000880B990B0E94A80229CE80915D02882368
:1013F00009F433C18FB7F89420911302309114028D
:1014000040911502509116022A873B874C875D87D1
:101410008FBF8091450290914602A0914702B09102
:1014200048024A855B856C857D85481B590B6A0B94
:101430007B0B8091510290915202A0915302B09186
:101440005402481759076A077B0708F406C1E09160
:101450003F02F091400280819181A281B381898312
:101460009A83AB83BC83E0914302F09144029C01D8
:10147000AD0160817181828193810E94AA0C4B0130
:101480005C0120914D0230914E0240914F025091EB
:10149000500269817A818B819C810E94AA0C6B0128
:1014A0007C012091330230913402409135025091F9
:1014B0003602C501B4010E947B0E20914902309191
:1014C0004A0240914B0250914C020E94AB0C2B01FE
:1014D0003C014092490250924A0260924B02709243
:1014E0004C0290915E029D8391111AC020912F02AF
:1014F000309130024091310250913202C701B60161
:101500000E947B0E9B01AC01C301B2010E94AA0C98
:101510006093490270934A0280934B0290934C026D
:101520004090490250904A0260904B0270904C02E9
:101530001091590200915A02A0915B02AF87B091BD
:101540005C02BE87212F302FAD01C301B2010E9482
:10155000760E18160CF0ABC0812F902FAF85BE858C
:101560008093490290934A02A0934B02B0934C029D
:101570009D81992309F4B2C020912F02309130024D
:101580004091310250913202C501B4010E947B0E9C
:101590004B015C01209137023091380240913902B1
:1015A00050913A02C701B6010E947B0E9B01AC012B
:1015B0006091490270914A0280914B0290914C02D5
:1015C0000E94AA0CA50194010E94AB0C6B017C0146
:1015D0009B01AC01612F702F8F859E850E94170D96
:1015E00087FD17C01091550200915602A091570235
:1015F000AF87B0915802BE87212F302FAD01B601C1
:10160000C7010E94170D87FD04C01C2D0D2DEF860C
:10161000FE86E0914102F0914202812F902FAF852A
:10162000BE8580839183A283B38329813A814B81D4
:101630005C8120934D0230934E0240934F025093B1
:1016400050028A859B85AC85BD8580934502909329
:101650004602A0934702B093480220E030E04EE7F4
:1016600053E460911B0270911C0280911D029091C5
:101670001E020E94760E181664F480E090E0AEE739
:10168000B3E480931B0290931C02A0931D02B093BD
:101690001E0260911B0270911C0280911D029091AC
:1016A0001E020E948E0D83E00E941102C7CC209181
:1016B00055023091560240915702509158022E83A4
:1016C0003F8348875987C301B2010E94170D87FFE6
:1016D0004FCF8E819F81A885B98542CF812C912CD7
:1016E000540158CF10926D0110926C0180915601F7
:1016F000082E000C990BC097289EB001299E700DF2
:10170000112480915701082E000C990BC097389E28
:101710009001399E300D1124620F731F8091580182
:10172000082E000C990BC097680F791F072E000C2C
:10173000880B990B0E94C60D23E333E343E250E488
:101740000E947B0E6B017C0120E030E04EE753E409
:101750000E94760E87FFC2CCC0921B02D0921C0260
:10176000E0921D02F0921E02C5CC10926D01109203
:101770006C0180915401082E000C990BC097289E93
:10178000B001299E700D112480915501082E000C86
:10179000990BC097389E9001399E300D1124620F2D
:1017A000731F80915601082E000C990BC097680F8B
:1017B000791F072E000C880B990B0E94C60D20E0A4
:1017C00030E040E251E40E941C0D69837A838B83F0
:1017D0009C836093040170930501809306019093AC
:1017E000070180915901082E000C990BC097289E83
:1017F000B001299E700D112480915A01082E000C11
:10180000990BC097389E9001399E300D1124620FBC
:10181000731F80915B01082E000C990BC097680F15
:10182000791F072E000C880B990B0E94C60D20E033
:1018300030E040E251E40E941C0D6B017C01C0923B
:101840000801D0920901E0920A01F0920B01809107
:101850005E01082E000C990BC097289E9001299ECE
:10186000300D112480915F01082E000C990BC09758
:10187000389EB001399E700D1124620F731F2091A4
:101880006001022E000C330B20533109620F731FCD
:10189000072E000C880B990B0E94C60D20E030E04B
:1018A00040E251E40E941C0D4B015C0180920C014E
:1018B00090920D01A0920E01B0920F0180916301F0
:1018C000082E000C990BC09728EE33E0829FB001E0
:1018D000839F700D929F700D112480916401082EDA
:1018E000000C990BC097289E9001299E300D112461
:1018F000260F371F80916501082E000C990BC097A9
:10190000389EB001399E700D1124620F731F209113
:101910006601022E000C330B20533109620F731F36
:10192000072E000C880B990B0E94C60D2B013C0161
:1019300020E030EC4FE754E40E94760E18160CF4C9
:101940004DCC409217025092180260921902709288
:101950001A0250CC5058BB27AA270E94C20C0C94E4
:101960003C0E0E942E0E38F00E94350E20F039F405
:101970009F3F19F426F40C942B0E0EF4E095E7FB30
:101980000C94250EE92F0E944D0E58F3BA176207EA
:1019900073078407950720F079F4A6F50C946F0E71
:1019A0000EF4E0950B2EBA2FA02D0B01B90190017A
:1019B0000C01CA01A0011124FF27591B99F0593FBE
:1019C00050F4503E68F11A16F040A22F232F342F06
:1019D0004427585FF3CF469537952795A795F04054
:1019E0005395C9F77EF41F16BA0B620B730B840B69
:1019F000BAF09150A1F0FF0FBB1F661F771F881F21
:101A0000C2F70EC0BA0F621F731F841F48F4879578
:101A100077956795B795F7959E3F08F0B0CF93956A
:101A2000880F08F09927EE0F9795879508950E94E3
:101A3000010E08F481E008950E94300D0C943C0ED4
:101A40000E94350E58F00E942E0E40F029F45F3FA0
:101A500029F00C94250E51110C94700E0C942B0E41
:101A60000E944D0E68F39923B1F3552391F3951B12
:101A7000550BBB27AA2762177307840738F09F5FAF
:101A80005F4F220F331F441FAA1FA9F335D00E2E1C
:101A90003AF0E0E832D091505040E695001CCAF789
:101AA0002BD0FE2F29D0660F771F881FBB1F26174C
:101AB00037074807AB07B0E809F0BB0B802DBF0123
:101AC000FF2793585F4F3AF09E3F510578F00C94F2
:101AD000250E0C94700E5F3FE4F3983ED4F3869588
:101AE00077956795B795F7959F5FC9F7880F911D13
:101AF0009695879597F90895E1E0660F771F881FFF
:101B0000BB1F621773078407BA0720F0621B730BB1
:101B1000840BBA0BEE1F88F7E09508950E94950D8F
:101B20006894B1110C94700E08950E94550E88F0BF
:101B30009F5798F0B92F9927B751B0F0E1F0660F91
:101B4000771F881F991F1AF0BA95C9F714C0B130D2
:101B500091F00E946F0EB1E008950C946F0E672F04
:101B6000782F8827B85F39F0B93FCCF38695779501
:101B70006795B395D9F73EF49095809570956195EA
:101B80007F4F8F4F9F4F0895E89409C097FB3EF415
:101B900090958095709561957F4F8F4F9F4F9923BA
:101BA000A9F0F92F96E9BB279395F6958795779538
:101BB0006795B795F111F8CFFAF4BB0F11F460FFF8
:101BC0001BC06F5F7F4F8F4F9F4F16C0882311F050
:101BD00096E911C0772321F09EE8872F762F05C064
:101BE000662371F096E8862F70E060E02AF09A95FF
:101BF000660F771F881FDAF7880F9695879597F9F4
:101C00000895990F0008550FAA0BE0E8FEEF16168D
:101C10001706E807F907C0F012161306E407F507E0
:101C200098F0621B730B840B950B39F40A2661F054
:101C3000232B242B252B21F408950A2609F4A140F7
:101C4000A6958FEF811D811D089597F99F6780E804
:101C500070E060E008959FEF80EC089500240A94FE
:101C60001616170618060906089500240A94121677
:101C70001306140605060895092E0394000C11F4AA
:101C8000882352F0BB0F40F4BF2B11F460FF04C057
:101C90006F5F7F4F8F4F9F4F089557FD9058440FB0
:101CA000551F59F05F3F71F04795880F97FB991FBB
:101CB00061F09F3F79F08795089512161306140678
:101CC000551FF2CF4695F1DF08C016161706180605
:101CD000991FF1CF86957105610508940895E894E0
:101CE000BB2766277727CB0197F908950E94010E3D
:101CF00008F48FEF08950E948E0E0C943C0E0E9403
:101D00002E0E38F00E94350E20F0952311F00C9421
:101D1000250E0C942B0E11240C94700E0E944D0E67
:101D200070F3959FC1F3950F50E0551F629FF0012E
:101D3000729FBB27F00DB11D639FAA27F00DB11D47
:101D4000AA1F649F6627B00DA11D661F829F2227D0
:101D5000B00DA11D621F739FB00DA11D621F839F57
:101D6000A00D611D221F749F3327A00D611D231F2D
:101D7000849F600D211D822F762F6A2F11249F577B
:101D800050409AF0F1F088234AF0EE0FFF1FBB1F7E
:101D9000661F771F881F91505040A9F79E3F51053D
:101DA00080F00C94250E0C94700E5F3FE4F3983E87
:101DB000D4F3869577956795B795F795E7959F5FE7
:101DC000C1F7FE2B880F911D9695879597F9089579
:101DD0000E94010E880B990B0895A1E21A2EAA1BEE
:101DE000BB1BFD010DC0AA1FBB1FEE1FFF1FA217CB
:101DF000B307E407F50720F0A21BB30BE40BF50BC8
:101E0000661F771F881F991F1A9469F76095709550
:101E1000809590959B01AC01BD01CF010895EE0F17
:0E1E2000FF1F0590F491E02D0994F894FFCF78
:101E2E00010001000000803FCDCC4C3E0000803F01
:101E3E000000000027018700B4007401E500C30014
:101E4E00D7006E616E00696E66006F7666002F2A8F
:101E5E0056005F41005F54005F50574D002F000D3C
:0E1E6E000A005F6B70005F6B69005F6B6400C1
:00000001FF
